:020000042000DA
:1000000000980020A5040020AD040020C5040020B5
:1000100000000000000000000000000000000000E0
:10002000000000000000000000000000DD040020CF
:100030000000000000000000F5040020F70400208C
:10004000FB250020E32600200D310300D1260020EF
:100050005D2600208D310300F5260020FD260020BE
:10006000F9040020F904002015270020AD31030019
:1000700057810200F9040020F9040020F90400204F
:10008000F9040020F9040020F9040020FD1F0020DD
:100090000120002005200020092000200D20002044
:020000042000DA
:10016000320000008B050020BB170020190800207A
:10017000000000000000000063800200BD8002005B
:100180003D0B0020FB800200198102003581020036
:100190005D8102006D25002071050020290B0020E3
:1001A000330B002000000000000000003F000000B2
:1001B000F48B002000040000740B080048010000CC
:1001C0006807080000040000C80C080020050000B3
:1001D000000000002000000048000000580000005F
:1001E0006800000004010000160100002801000062
:1001F0002E010000202A00008E2E000001000000C9
:100200008813000045180020E9600200FD930200F9
:100210009B12002019280300A57402004923002026
:1002200003000000D520020019080020040000008F
:10023000D74902000F490200831D020063910200AA
:10024000B7910200BF910200078202007182020092
:100250007E370020AD8302009384020041850200B6
:1002600015860200378602005F860200758602004E
:10027000F9870200258902005D8A0200D38C020002
:10028000098D02000F900200438D0200278E0200AC
:10029000F98E0200478F0200AF0A0020D58F0200BE
:1002A00049510200775102002F5202001000000055
:1002B00020030000803E000000000000000000005D
:020000042000DA
:1002C000504600030003983A6400F401B80B000C98
:1002D000B80B120030003000CD009A01120024004B
:1002E00030006400B0001800280012001200D0078F
:1002F0000000FFFF00000000000000000000000000
:100300001F000002444131343538302D30310000B7
:1003100000000000000000000000000000000000DD
:0403200000000000D9
:020000042000DA
:10034000FFFF010000C201000000000000000000EB
:100350000000F4010100011B0A071AFFD200021578
:10036000585CDE931B0142CC9A1325009BEDC65EC0
:1003700000010002C5000000000009FF00605257A4
:100380002D424C450000000000000000000000006D
:100390000000000000000000000044413134353806
:1003A00078000000000000000000000000000000D5
:1003B000000000000000000000000000000000003D
:1003C000000000000000000000000000000000002D
:1003D0000000000000000000010000CAEA80D00711
:0403E000064064323D
:020000042000DA
:100440000348854602F028FF00480047C720020005
:10045000009800200F4906200880FF200E49013037
:1004600008600E4988683E2290432E308860002242
:10047000052000070280018A0F231B021943018215
:1004800001210748C90404C1401E0028FBDA62B6F6
:10049000704700000034005080E100E0003300505D
:1004A000FF0B00001548804715480047042071469F
:1004B000084203D0EFF3098012490847EFF30880A0
:1004C0001049084704207146084203D0EFF3098021
:1004D0000D490847EFF308800B490847042071468F
:1004E000084203D0EFF3098008490847EFF308807A
:1004F00006490847FEE7FEE7FEE700005504002036
:10050000410400202D090020110500206B0C002063
:1005100005221207518A8023194351821249036828
:100520000B6043684B6083688B60C368CB60036972
:100530000B6143694B6183698B61C369CB6108625D
:100540000A48836A4B62C36A8B62036BCB62C36BDC
:100550000B63436B4B63806B8863908A800601D585
:1005600000BE7047FEE700000018080000ED00E044
:1005700010B599490020086000F094FA0120800726
:10058000016B49004908016310BD1CB59348012166
:1005900001709348C82606800025458091480827A9
:1005A000478002F08BFE01F0F1F900F06BFC8E4801
:1005B00000788D4908708D4801780170012002F0A3
:1005C00083FE7C010D202146800102F083FE01F0B4
:1005D000D7FE01F055F800F0F5F9042000F0F5F829
:1005E000072000F0F2F80A2000F0EFF8062000F0F3
:1005F000ECF80B2000F0E9F8012000F0E6F802200A
:1006000000F0E3F8002000F0E0F87948006802F01C
:1006100067FE01F019F8A00501682143016000F0B0
:10062000B0FA00F008F902F017FBFFF7A1FF05246C
:100630002407E5826F4D6888E0218843A0306880F8
:10064000012002F053FE6648068066494F8002276B
:10065000208900061CD501208007006B000417D4F8
:1006600002F04AFEC00713D1042002F04BFE0646FA
:1006700002F04EFE002E09D000200190042101A8B6
:1006800002F04CFE002801D000F01FFA02F0AFFD8E
:1006900072B601F0B1FE69460870042806D002283F
:1006A0000CD003280AD001287ED089E05248007877
:1006B000012802D00320087000E00F70208A042671
:1006C000304320824D48C0690128087811D9032899
:1006D0004AD102F029FE002846D002F02BFE002865
:1006E00042D0032002F02CFE00283DD04448077081
:1006F00008E0032838D102F023FE002834D0404916
:10070000012008703F48016931430161618A20225C
:1007100091436182218A3943218269460A78618A3C
:10072000022A23D0314361827F21890123888C46AC
:1007300080210B43238000235B1CDBB20A2BFBD3FD
:10074000638A10210B43638261462F4B491E596116
:10075000218880239943218000212C4B022A197083
:100760000BD0032A09D025E06846C0E731436182F7
:10077000618A102399436182EEE76A88FF2301337F
:100780009A436A806288224B1A806A8801231A433E
:100790006A800191019A521C0192142AFADB628943
:1007A00092089200521C00E009E0628162895206C0
:1007B000FCD5618030BF0169B143016100E030BF09
:1007C00062B6C8200649088042E7C106C90E01206A
:1007D00088401049086070478C03080000800020A2
:1007E000003100500033005000000800202A0800AB
:1007F000049000202000005054020800E001002076
:10080000C406080000ED00E00080004032800020B7
:100810003480002080E200E0704700003E4801780C
:10082000002902D08021417070473C4900200870A7
:100830003B49C870704738480178002902D08121AF
:10084000417070473549012008703549C8707047BC
:1008500031480178002902D08221417070472F4928
:10086000022008702E490120C87070472A488178FC
:10087000002904D0491E0906090E817017D142785B
:100880000021002A04D09207920F0270417004E008
:100890000278002A01D0521E02701206120E017058
:1008A00005D0012A02D0022A01D1D1E7C3E770475F
:1008B00010B5194CA078401CA0702078002805D1F4
:1008C00002F044FD421CFFF7A9FF227010BD12493F
:1008D0000120C870704710490020C87070470E484A
:1008E000C07870470020EFF31081012282F3108856
:1008F000052212071289120605D40A48028901232B
:100900001A4302811846002900D0012181F3108882
:1009100070470548007870470180002054020800A5
:10092000C606080000330050308000200522120760
:10093000118A042319431182118A02231943118257
:100940001189402319431181184B01211960184B5B
:1009500008211980518A802319435182154903685F
:100960000B6143684B6183688B61C368CB6103692A
:100970000B6243694B6283698B62C369CB62086314
:100980000D48836A4B63C36A8B63036BCB63C36B92
:10099000084940310B60436B4B60806B8860908AE4
:1009A000800601D500BE7047FEE7000080E200E04F
:1009B000003300504018080000ED00E09849002086
:1009C0004860704770B505200007018930229143C7
:1009D00001810189802211430181018989088900EF
:1009E000491C018101890823194301818D490C8823
:1009F00014430C80448A9C43448205894024254347
:100A00000581058A0426B5430582858AAD07FCD594
:100A1000834E002575600D88012635430D804D8974
:100A2000AE05814D0E8801D52E4300E0AE430E8009
:100A30000D887826B54328350D800D880626354368
:100A40000D80458A1D4345820B8893430B800289A4
:100A5000A24302814889800503D57249052060318F
:100A600088800120800701688215914301606F48EA
:100A700001683F22520291434214891801600168C3
:100A800002031143016070BD03216948090281819D
:100A9000082242800021491C9629FCD3828070479D
:100AA0007047704710B5634802F056FC10BD70B532
:100AB0005C4C6088C006050F02F054FC61881E2261
:100AC00091436A001143618070BD10B55A490120FD
:100AD000C863C86B0028FCD101208007C169574852
:100AE0000268914201D20022026019238A1ADB01B6
:100AF0009A4212D3016002F03BFC514A11888842AD
:100B000001D9411A00E0091A89B2182905D31080C9
:100B1000012002F033FC02F037FC10BD08B500984C
:100B200008BD08B5009808BD08B502F033FC009078
:100B300008BD08B502F034FC009008BD08B5414975
:100B400001204A695206D20F13D04A699206D20F89
:100B50000FD000220A610092FF225F32009B5B1CD3
:100B600000939342FAD34969C907C90F02D002F032
:100B70001DFC002008BD40183721C00009014018A5
:100B800070471FB5684601F064FB009802F09CFBBB
:100B90001FBD2D4900200A78002A0DD026480122C9
:100BA000C263C26B002AFCD101208007C069274ABA
:100BB0001268904201D20120704700200870244939
:100BC00008204880002070470020704708B515496C
:100BD0004A8801231A434A8000210091491C009150
:100BE0001429FBDB052109074A8992089200521C4F
:100BF0004A814A895206FCD54B89042213434B8112
:100C00004880488990434881888A0006FCD54889F5
:100C100080088000488148890006FCD508BD000096
:100C2000088000202000005000100000000200405A
:100C300020300050E2040000C00000407C040800A6
:100C4000780408000010005000800020643A002062
:100C500000330050028908892249101A80B2884264
:100C600001D9012070470020704781692039897FB0
:100C7000082904D21C4A8900515881617047FEE757
:100C80001B481A4901611B4941611B4981611B498C
:100C9000C1611B4901621B4941621B4981621B49B9
:100CA000C1621B4901631B4941631B4981631B49A5
:100CB000C16319490E485C314030016018494160F8
:100CC000184981601849C16001201849C0060860B0
:100CD0001749CA691202120ACA61144980390860A8
:100CE00070470000307500009437002094270300FF
:100CF0000084004062B600DF28A30200704701DFD5
:100D00001CCA0200F8BD02DF40CB0200F5E703DF9A
:100D100084D4020004DF89B0BC330200F8BD05DFD3
:100D2000F8BD06DFEC0C030070BD07DF80E100E0DA
:100D300000ED00E070B5644800220169D24300294B
:100D400001D0114600E00121CB170C0F1B012343FA
:100D50000C0101615D490D684E682C4333430C6002
:100D60004B604369002B01D0144600E00124E317D7
:100D7000E50E5B012B4344610D6864014E682C4312
:100D800033430C604B60C369002B01D0144600E074
:100D90000124E317650EDB012B43C4610D68E401F8
:100DA0004E682C4333430C604B60836A002B01D0A8
:100DB000144600E00124E317250C1B042B43846236
:100DC0000D6824044E682C4333430C604B608369E8
:100DD000002B01D0144600E00124E317A50E9B016F
:100DE0002B4384610D68A4014E682C4333430C608F
:100DF0004B60C36A002B00D10122C262D017D30B13
:100E0000400418430C6852044B68224318430A609C
:100E1000486070BD38B5002403252D0202232A4600
:100E200004212046009400F054FE01232A460521A7
:100E30000020009400F04DFE00232A4607211846AA
:100E4000009400F046FE00232A4619460120009433
:100E500000F03FFEFF25002301352A4606211846F3
:100E6000009400F036FE012100232A460846009433
:100E700000F02FFE164801880180154820300188B7
:100E8000018038BD10B505242407208A022188433B
:100E90002082A08A0007FCD50E484188FF2201323B
:100EA00011434180FFF7ECFEFFF7B4FFA0888021DB
:100EB0000843A0800321092002F07EFA608A2021E5
:100EC0000843608210BD0000289000202090002080
:100ED000003000502000005070B516460D461046F8
:100EE00002F070FA002869D0340A304602F06AFA3B
:100EF000012812D0A87A1E2811D029460A310E28BE
:100F000045D019DC801E030002F062FA0B25582937
:100F1000582D58315839583D5800022070BD31467F
:100F2000274802F05BFA0021204602F05DFA022118
:100F3000304602F05FFA41E018283CD006DC102869
:100F400019D012282BD0162838D130E0522822D0C0
:100F5000D22833D127E0204602F052FA2EE0204674
:100F600002F054FA2AE0204602F056FA26E0204623
:100F700002F058FA22E0204602F05AFA1EE020461B
:100F800002F05CFA1AE0204602F05EFA16E0204613
:100F900002F060FA12E0204602F062FA0EE020460B
:100FA00002F064FA0AE0204602F066FA06E0204603
:100FB00002F068FA02E0204602F06AFA002070BDF2
:100FC00001280000F8B50D46064681002B48EA8846
:100FD0004458521C20686B89018F294F514300915E
:100FE000014640314A89C989511A8AB2991A89B28F
:100FF000B94214D29A4212D0294602F04FFA2D89F2
:101000002049009802F050FA2818801C4034E082F1
:101010003002401C80B2042102F0ECF9F8BD282116
:10102000304602F047FAF8BDF8B505468700134888
:101030000C46C059C9880068114E02464032538997
:10104000D2899A1A92B28B1A9BB2B34211D20B4E2A
:101050008A420ED002F034FAF05905225F30611C4A
:1010600002F034FA2802401C80B2052102F0C2F9D5
:10107000F8BD2821284602F01DFAF8BD4C030800EF
:10108000FF7F00001027000070B50446007800259F
:101090000D2801D00A2200E002225A494B7A002B87
:1010A00006D00D2804D0637C032B01D0432551E0EA
:1010B000097A8A4339D10D2809D00E2802D00F2889
:1010C00003D134E0607C032804D3402542E0607CF7
:1010D0000328FAD8A07C0428F7D20A2908D0607C1B
:1010E000012822D0022820D06078032809D811E0F6
:1010F00002F0F2F9012806D16078032803D0002815
:1011000001D0492526E002F0E7F9002802D16078F5
:101110000228F6D83020035D22462046E17C313299
:10112000143000F019F8054614E0422512E002F0F0
:10113000D3F9012807D16078052804D1A01D02F059
:10114000D1F90028DDD002F0C7F9002802D160787B
:101150000228D6D8284670BDFFB5002086B00121F0
:101160006A461170044605910021002C06D0089DA6
:10117000099A1F239A4234D9402032E01C23069D4D
:10118000079AF7E76B185E78330002F021F91D2605
:1011900010101010101010101026262626262626B5
:1011A0002626262626261010101010102600059B35
:1011B00003E06F46FF5CB74204D05B1E5BB2002BBE
:1011C000F7DA03E0002B01DB4A2006E0059B6F46BF
:1011D000FE54059B5B1CDBB205936B5C491C5918E4
:1011E000C9B2914201D20028CCD0914202D04A200B
:1011F0000AB0F0BD641CE4B2022CF9D20028B3D0CE
:10120000F6E700009805080070B5EFF3108501209F
:1012100080F31088264802F06BF90446002D1DD09B
:10122000012080F31088002C23D020462038C08B6A
:10123000204988421DD16189208902F05FF90500AB
:101240000ED021461031A38962892089A847002841
:1012500006D001280DD002280BD105E00020E0E7E0
:10126000204602F051F904E0114821460C3002F00A
:1012700051F9EFF31084012080F310880C480068C6
:10128000002802D1012002F04BF9002C03D00120EC
:1012900080F3108870BD0020FAE710B5BC21064825
:1012A00002F044F90549012002F046F910BD0000A2
:1012B000A805080038830000040608000912002071
:1012C000F3B581B001980C460102CA1D0E3102230C
:1012D000344802F037F90470019905460227324874
:1012E0008E00002C06D0042C16D0062C10D0072C13
:1012F0003FD108E0815905224968897C1140697015
:101300008059C77335E0084602F022F9687030E072
:1013100080590F21C1732CE0044680594068417CFC
:10132000012902D1007E01280FD0019802F016F9A0
:1013300001210028A0590BD04268D07D00281CD084
:1013400001281AD004280DD00FE0002068700DE0AD
:101350004068C27D022A01D0042A06D1007C0228FE
:101360000BD102E0107C022807D06F70A159032036
:10137000C873284602F0F8F8FEBD6970F6E701462A
:101380000A780120042A01D9002070474A78002AEF
:1013900001D0012AF8D10A79082AF5D84979082913
:1013A000F2D87047021C000028050800FFB589B07C
:1013B0000D4600206946059008720B98000A0090BF
:1013C00002F0CCF807460B9801F0FCFF00287DD016
:1013D0000B982978000A8400784E012963D00429EB
:1013E00004D0062948D0072968D125E03059C17BAF
:1013F000032901D0042961D1697800291AD04068F5
:101400001022A91C02F062F8002F06D03159C87BC7
:10141000032807D0042808D050E03059C07B0328A7
:1014200003D04BE00B20C87348E00521009802F080
:10143000A1F843E00120B6E03059C07B0E283DD131
:10144000009802F085F8002103E02A18401C9170F2
:10145000C0B21028F9D3688A69460883294606A8CD
:1014600008221431023002F031F806ABAA1C3946CA
:10147000009802F085F821E03059C07B0F281DD17B
:10148000AA1C0A21009802F081F8002F04D03946E6
:10149000009802F081F811E000231A4639460098BE
:1014A00002F080F80AE0012F08D10B9801F08AFFC2
:1014B00001281CD0002801D0022005906846007A3F
:1014C000002811D002AA0521009800E00CE002F0EB
:1014D0005DF86846027A6020024368460272012382
:1014E0003946009802F05EF805980DB0F0BD30590D
:1014F000C07B0228E2D16878002851D002210B98E5
:1015000001F078FF305907224068A91C173001F01C
:10151000DDFFE878002804D130594068407C01287C
:101520003AD0009802F044F8002837D0297A009881
:1015300002F044F8002833D0009802F045F8012169
:10154000009802F047F800282CD030594068417EBE
:1015500000292BD0042929D0C17E027D1140C176FB
:1015600030594068017F427D114001776846007A1A
:101570000028A7D13059022142680098173202F0A2
:1015800005F8305941684031897B002913D0042186
:101590000098FFF795FE91E7022004E0062002E0A4
:1015A000082000E00320694608728BE70021C1761D
:1015B00030594068D9E70B21C1737FE7280508003F
:1015C00010B50C4602F00CF82188284A89005258C0
:1015D000274B1268D2685A5010BD10B5144602F05D
:1015E00005F8210A214A89005258214B1268D26815
:1015F0005A5010BDFFB50F46100A1C49800009580B
:1016000081B009681E461546002901D0CC6803E068
:10161000174900220C580A50002C0DD0201F40887A
:101620001449884208D1A068002802D0204601F061
:10163000E3FF204601F0E6FF33462A46394601988B
:1016400001F0E6FF05B0F0BD70B50B480378021D50
:1016500000210A4D07E0CC00165D012E01D12418AF
:10166000A560491CC9B29942F5D370BD4C0308006E
:101670001C8000203883000004060800AC390020DC
:1016800030B5964A9649D005048880231C430480CF
:10169000944C65892D0701D4521EFAD2924C012236
:1016A0002260924C0A882280914A498811800188E0
:1016B0009943018030BD00207047704770477047E4
:1016C0000020704701218907086B07221043086337
:1016D0007047704730B588498648086087494C2074
:1016E0000880864C864B203C238287498548488069
:1016F00087488649018085491931418022214181ED
:101700008121890001828349418283490183814982
:10171000113141837E4A81492032918041228049A2
:1017200012018A807F4ACA807E4D1035CD810A829F
:101730004A82921C8A826A1FCA82FF2246320A8328
:10174000794A4A83794A592111807849784D203164
:101750000D8043254D80774D5582D5228A80FF220A
:10176000D3320A81744A4A81744A8A81754A74491B
:1017700011806249744A60394A80CA8810252A4318
:10178000CA806B4A0A3A0A815C4D704A403D6A80C1
:10179000638208224A815649644A0988403A118284
:1017A00052496B4A098811806A490978002901D099
:1017B0003021018330BD4008704700B58BB0664AC8
:1017C0004262664A8262664A4261664AC262664A0A
:1017D0000260664A0262664A4260664AC261464ADE
:1017E00044480021106044484038026B03129A4379
:1017F0000263426B1F231B049A4303231B04D2186A
:1018000042635D480268C3129A4302600268031390
:101810009A43026068464154491CC9B22829FAD348
:1018200001462822554801F051FEFFF753FF01F011
:101830009FFD53490880002001F0A0FD01F0A4FDA8
:101840000BB000BD10B52C4A0F212A4809021060C8
:1018500029484038426B1F231B049A4303231B046F
:10186000D218426300060268D208D2000260052046
:101870000007028992089200521C02810289082303
:101880001A430281028A0A43028216484189890565
:1018900004D501887822914308310180FFF71AFFAF
:1018A0003848006F0078002804D037480088134972
:1018B0006039C880012001F019FD10BD254800786D
:1018C000704724490120087011493020088370476F
:1018D0002049002008700E4908837047A086010047
:1018E000087F0400200000500080004056020800DD
:1018F0004A0308004C05540780000040602C00504B
:101900007F7F0000AC290000002200500909000080
:10191000002400502204000030D00000EE1100002E
:10192000002500502E0200004420000040280050F6
:101930000D95000002420000E4DC0000109200005F
:1019400053780000002A00508B1000009DD5000045
:101950000026005020800020B7160020BB16002073
:10196000C1160020C5160020BD160020D316002089
:10197000BF160020B717002000020040200008001A
:1019800078040800E001002052040800FEB50020A1
:10199000F84E034628220021424392198C00491C2C
:1019A00013510A29FADB401C0428F3DBFFF7C2F9C4
:1019B000F048002208380260426015460024EE48D4
:1019C0006900475A0120A04080B207421CD028205D
:1019D00068438019A1004058411C19D0002810D03C
:1019E000C117224601F01AFE2A0101F017FEE14B51
:1019F000083B1A685B681043DE4A1943083A1060D6
:101A00005160641C0A2CDDDB6D1C042DD6DBFEBD91
:101A10000095019400BEE3E7F8B5164604460D466E
:101A20000A461F460120002101F0F8FD220101F0C5
:101A3000F5FDD04B083B1A685B681040194008431D
:101A400000D100BE032C00D10424CC496001401811
:101A5000690008183E43C680F8BD70B504460D46BF
:101A60000A460120002101F0D9FD220101F0D6FD36
:101A7000C04A083A1368526818401140084300D120
:101A800000BE032C00D10424BC4960014018012190
:101A9000A940818070BD70B504460D460A460120FC
:101AA000002101F0BBFD220101F0B8FDB14A083A66
:101AB0001368526818401140084300D100BE032C3F
:101AC00000D10424AD49600140180121A9404180A2
:101AD00070BDFFB581B00C4605460A461F46012081
:101AE00000210A9E01F09AFD2A0101F097FDA14B09
:101AF000083B1A685B6810401940084300D100BEDB
:101B0000002E2146284602D0FFF7C5FF01E0FFF76F
:101B1000A4FF3B4621462846039AFFF77DFF05B008
:101B2000F0BD70B5154604460E460A460120002158
:101B300001F074FD220101F071FD8E4B083B1A6823
:101B40005B6810401940084300D100BE002C07D04C
:101B5000601E8A49400070314018012C02D002E01A
:101B60000020F6E7083601880122B2409143B540D3
:101B70000D43058070BD70B504460D460A46012030
:101B8000002101F04BFD220101F048FD794A083A9D
:101B90001368526818401140084300D100BE032C5E
:101BA00000D1042475496001401800880121A94032
:101BB000084000D0012070BDFFB514460D46064612
:101BC0000A4681B00120002101F028FD320101F018
:101BD00025FD684B083B1A685B68104019400843B4
:101BE00000D100BE66A00068009066488089234648
:101BF000133BFF2201329A400B999043002901D0F8
:101C0000012700E00027D10701D0002138E091072B
:101C100001D5012134E0510701D5022130E011073F
:101C200001D503212CE0D10601D5042128E091063D
:101C300001D5052124E0510601D5062120E0110639
:101C400001D507211CE0D10501D5082118E0910537
:101C500001D5092114E0510501D50A2110E0110533
:101C600001D50B210CE0D10401D50C2108E0910431
:101C700001D50D2104E0510401D50E2100E00F2112
:101C80008F4040493843888188890B9F80098001B3
:101C9000384388810F8A9743D00701D0002038E06D
:101CA000900701D5012034E0500701D5022030E033
:101CB000100701D503202CE0D00601D5042028E030
:101CC000900601D5052024E0500601D5062020E02D
:101CD000100601D507201CE0D00501D5082018E02A
:101CE000900501D5092014E0500501D50A2010E027
:101CF000100501D50B200CE0D00401D50C2008E024
:101D0000900401D50D2004E0500401D50E2000E020
:101D10000F200A9A824017430F820F8A0122104631
:101D200098408743C30701D0002042E0830701D5D4
:101D300001203EE0430701D502203AE0030701D528
:101D4000032036E0C30601D5042032E0830601D526
:101D500005202EE0430601D506202AE0030601D522
:101D6000072026E0C30501D5082022E083050BD516
:101D700009201EE028900020BC39002000300050CF
:101D800001090F1900140050430501D50A2010E085
:101D9000030501D50B200CE0C30401D50C2008E09D
:101DA000830401D50D2004E0400401D50E2000E09D
:101DB0000F20049B83401F430F8295486100081841
:101DC000418B6B4689099B5D89015B1919434183EE
:101DD000A007C30EFF21994080209840002C0BDA09
:101DE00023071B0F083B9D088A4BAD00ED18EB69DC
:101DF0008B430343EB6107E0A508874BAD00ED186B
:101E00002B688B4303432B60E006C00E824083485F
:101E1000026084E67E4940310A8A012113388140FC
:101E20000A40C80701D0002038E0880701D501200A
:101E300034E0480701D5022030E0080701D503202F
:101E40002CE0C80601D5042028E0880601D505202D
:101E500024E0480601D5062020E0080601D5072029
:101E60001CE0C80501D5082018E0880501D5092027
:101E700014E0480501D50A2010E0080501D50B2023
:101E80000CE0C80401D50C2008E0880401D50D2021
:101E900004E0480401D50E2000E00F20C240D0B27B
:101EA000704710B55A4C4034238A012213388240BF
:101EB0009343D00701D0002038E0900701D50120DE
:101EC00034E0500701D5022030E0100701D503208F
:101ED0002CE0D00601D5042028E0900601D505208D
:101EE00024E0500601D5062020E0100601D5072089
:101EF0001CE0D00501D5082018E0900501D5092087
:101F000014E0500501D50A2010E0100501D50B2082
:101F10000CE0D00401D50C2008E0900401D50D2080
:101F200004E0500401D50E2000E00F2081400B4357
:101F3000238210BD10B5364C4034E389012211468E
:101F4000133881408B43C80701D0002038E0880750
:101F500001D5012034E0480701D5022030E0080710
:101F600001D503202CE0C80601D5042028E088060E
:101F700001D5052024E0480601D5062020E008060A
:101F800001D507201CE0C80501D5082018E0880508
:101F900001D5092014E0480501D50A2010E0080504
:101FA00001D50B200CE0C80401D50C2008E0880402
:101FB00001D50D2004E0480401D50E2000E00F20DB
:101FC00082401343E38110BD154A80008018803899
:101FD0004163704710B50446FFF7ACFF1049A000FD
:101FE00040188038406B002801D0804710BDE106C2
:101FF000C90E012088400B49086010BD1320E9E795
:102000001420E7E71520E5E71620E3E71720E1E7CE
:10201000C013005000ED00E000E400E000E100E04B
:10202000C890002080E200E00843012189030346B4
:102030000B4343490B80434B18430880092002435C
:102040004A8070473E490A880F239B0100079A4344
:10205000800D02430A80704739490020088070478C
:1020600037483949028802231A430280491E02D3A5
:1020700002889207FAD400210181408970470AE062
:1020800000BF00BF00BF00BF00BF00BF00BF00BF58
:1020900000BF00BF00BF401EF2D2704770B50222E1
:1020A000510204464E003046FFF7BEFF1420FFF7F2
:1020B000E6FF002C01D0092000E00720FFF7C2FF57
:1020C000FFF7CEFF05460120FFF7D9FF02220021CE
:1020D0003046FFF7A9FF002C01D0092000E00720BF
:1020E000FFF7B0FFFFF7BCFF4019154A0021118030
:1020F00070BDF0B5124C154820801420FFF7BFFFCB
:1021000001256D02A580E5802088E9000843208034
:1021100020888E10B0432080FFF7A2FF074620885A
:1021200030432080FFF79CFF024678007142401840
:10213000281A52005118691AA080E180F0BD0000F1
:102140000015005001400000A08601000148000079
:102150000F4A518807235B02994340020143518093
:102160007047052000070188302211430180018853
:1021700003221143018070470520000701883022A7
:10218000914301800188890889000180704700001F
:102190008000005008B58921052000070181012138
:1021A000614A49031180018880221143018001881E
:1021B0008908890001805D48018A02221143018259
:1021C000FFF788FA01F030FA01F034FA002069468E
:1021D00001E00888401C088008889128F9D308BDD0
:1021E00008B55349002008804880534A514BD3809A
:1021F000FF23D2331381C880C32151804F4A082165
:1022000011806946088003E06A461188491C1180E4
:10221000694609889129F7D36946088003E06A4630
:102220001188491C1180694609889129F7D36946AC
:1022300001E00888401C088008889128F9D308BD6F
:102240003F4A5080918001201080D088C007FCD187
:102250007047F1B5FFB0FFB094B011AC33480494AF
:10226000008AA41C1090FFF795FF314801880F9158
:1022700041880E913049CA880D920A890C92C28811
:102280000B92408B0A902F484088099048888446DA
:10229000FFF7A6FF00252B46FF2111A8FFF7D0FF6F
:1022A00000210A460846049E275C365C7E40F607FD
:1022B000F60F8E401643491CC9B2F2B2082906D166
:1022C000FFA9C96C4A556D1C0021ADB20A461030F9
:1022D000FF2680B2B600B042E5D95B1C9BB2022B50
:1022E000DAD3124910980882144900200880104857
:1022F0000F9901800E9941800F490D9ACA800C9A5E
:102300000A810B9AC2800A9A42830E4A0998508029
:1023100060464880052000070188802291430180A3
:102320007FB07FB015B0F0BD00020040E03000503B
:1023300000240050808000006028005020200050C1
:10234000003500500026005070B516460C46054674
:1023500001280FD106222149214801F071F90028F6
:1023600008D006221E49304601F0B0F80620207041
:10237000002070BD32462146284601F067F970BD45
:1023800070B518481849C405228880252A43228040
:10239000164A53891B0701D4401EFAD2144A012061
:1023A000106006220E4801F091F82088A843208092
:1023B00070BD70B50F4D04462B6801201A78920746
:1023C00002D53E2C01D3042070BD184622465A3057
:1023D00001F07CF828684476002070BD383E030088
:1023E00021800020A0860100D47F0400200000503E
:1023F00000800040C0060800F8B5534D0027686D06
:102400000090FEF76CFA514C002802D12079022886
:1024100001D100200090FEF7BCFB00280DD101F097
:102420001BF9002809D0E0780127002805D00526EF
:102430003607B08AC00701D0042783E000F05CFFB4
:1024400000287FD142488069002801D0686D009043
:10245000A1786846009D01F005F9002872D0A178A6
:10246000684600F05BFF00286CD0FF2100952D31FD
:102470000125AD07286A8842FCD3A178684601F09F
:10248000F1F800285ED0A178684600F047FF0028E8
:1024900058D0304A832012780099022A00D1B52002
:1024A0002D4A1378012B00D1213000231370EB6BE0
:1024B0000F229B0A9B021343EB63EA6B274B8002BC
:1024C0001A400243EA63E86B3722C002C00A920551
:1024D0001043E8630427002901D0091D00910098EA
:1024E0006421C00200F0E0FF1D49401E0860217910
:1024F000002900D0012101F0BBF81A48C06A8047CA
:102500000024FEF761FB002808D030883021084302
:10251000308030880321084330800124286B000478
:10252000C00FFBD010480168C905FCD5002C01D0B4
:10253000FFF722FE01F0A2F830898021884300E0F5
:1025400000E030813846F8BD60020020C606080071
:10255000A80508005402080031800020FF03E0FFB6
:10256000288000201C0708000002004070B50125EB
:10257000AD07AC6B2046FEF7DCFA7E4900F094FF15
:1025800027221201511A00D101217B4A50601160AB
:10259000286B0821884308432863784804607848FA
:1025A0000068002802D0A04200D200BE70BD10B565
:1025B000052000074189890708D0418989088900D9
:1025C000418170494A88520852004A80018980221C
:1025D00011430181018A042291430182818A890782
:1025E000FCD501F051F8012080070169490700D5A9
:1025F00000BE01694907FCD510BDF8B5624EF088F0
:1026000000282AD101200527F0803F07788980071C
:1026100020D0B88A400701D5FEF734FC594D2888F0
:10262000802108432880594CFF20608004202080AE
:10263000FFF797FD7D21C900E088A288000480187B
:102640008842F9D905202080B088788029888020A8
:10265000814329804E4910200860F8BD70B5FFF70E
:102660008BFDFFF7A4FF0026474C0520E6800007FE
:10267000418A802211434182464801894908490024
:102680000181D005816904221143816101F002F8C2
:102690003F49102080310125086001F001F801F068
:1026A00005F8384826704089800510D560780028E4
:1026B0000DD1394865700088C00708D10120FFF7A7
:1026C000EDFC8B218900884201D90220607070BD29
:1026D00010B500F0F1FF00F046F82B49012008701A
:1026E00010BD10B501208007008A000601D500F05A
:1026F0003AF810BD10B500F0E5FF10BD10B501208F
:102700008007008A000704D500F0E2FF1E4904207C
:10271000087010BD70B52148008885062048AD0EB0
:1027200044682048006F0078002802D1284600F055
:10273000D5FF1D480089144EC00507D520060BD5CE
:10274000E00709D0284600F0CFFF03E0200603D5BC
:10275000E00701D003203070200403D5E00501D547
:102760000220307070BD10B507490120887000F05C
:10277000C1FF10BD71020000400000402C8000200D
:1027800028800020200000503080002000160050DB
:1027900000E200E00033005000150050002000501F
:1027A00000020040E0010020002C005010B57CA089
:1027B00000F01AFD10BD10B57DA000F015FD10BD94
:1027C00010B580A000F010FD10BD10B582A000F083
:1027D0000BFD10BD70B5044684A000F005FD894DC9
:1027E000A878FF2811D00621322000F003FE2188AE
:1027F0002980617A6971214606220A31A81D00F0FC
:1028000065FE002000F05AFA70BD00F06CFA70BD51
:10281000F0B5044691B07CA000F0E6FC0E26002541
:10282000267065707D48A081E0810720207401201A
:10283000607427461F21203739742046E5742A46E4
:1028400064A1143000F042FE3D74324674A1684623
:1028500000F056FF21460F203131685420460921EF
:1028600032302954401C3246694600F02FFE397C34
:102870001031397411B0F0BD70B505460C466CA02E
:1028800000F0B2FCA17814291ED004DC082915D070
:10289000132904D114E0162918D03B2918D06AA0B6
:1028A00000F053FC284600F08DFD042803D00628D4
:1028B00001D0052801D100F016FA70BD66A000E035
:1028C00069A000F091FCEDE76DA0FAE775A0F8E7CC
:1028D0007BA0F6E710B581A000F086FC012010BDBA
:1028E00010B583A000F080FC10BD10B50C4686A08A
:1028F00000F07AFC032020700A20607000206082C3
:10290000207560751721E1820821218310216183E0
:10291000A0836421E1832034207010BD10B581A014
:1029200000F062FC0121322000F064FD00F0B1F9FA
:10293000002804D084A000F057FC00F0D4F910BDAA
:1029400010B587A000F050FC10BD10B58DA000F0B0
:102950004BFC10BD10B594A000F046FC10BD10B5A6
:1029600098A000F041FC10BD10B59DA000F03CFC0B
:1029700010BD10B5A1A000F037FC00F0B4F910BDF7
:10298000704770477047704710B50124A2A000F04F
:102990002BFC204610BD10B5A7A000F025FC10BDF3
:1029A0006170705F696E69745F66756E630D0A00B1
:1029B0006170705F7365635F696E69745F66756E81
:1029C000630D0A006170705F74696D65725F667592
:1029D0006E630D0A000000006170705F636F6E5FD0
:1029E000727373695F66756E630D0A006170705F64
:1029F000636F6E6E656374696F6E5F66756E630D8F
:102A00000A000000388000200D0A6170705F616468
:102A1000765F66756E630D0A000000004C040000CE
:102A20004D75726174615F3130305F30303000005D
:102A30006170705F646973636F6E6E6563745F6607
:102A4000756E630D0A00000009726561736F6E3A5E
:102A500020253032580D0A0009434F4E5F54494D2E
:102A6000454F55540D0A00000952454D4F54455FDE
:102A7000555345525F5445524D5F434F4E0D0A002A
:102A80000952454D4F54455F4445565F5445524D9C
:102A90005F4C4F575F5245534F55524345530D0AB4
:102AA0000000000009434F4E5F5445524D5F4259AC
:102AB0005F4C4F43414C5F484F53540D0A00000098
:102AC00009554E41434345505441424C455F434FA5
:102AD0004E4E5F494E540D0A000000006170705F59
:102AE00064625F696E69745F66756E630D0A0000EB
:102AF0006170705F706172616D5F75706461746543
:102B00005F66756E630D0A006170705F636F6E665D
:102B1000696775726174696F6E5F66756E630D0AC1
:102B2000000000006170705F7365745F6465765FBC
:102B3000636F6E6669675F636F6D706C6574655F08
:102B400066756E630D0A000063616C6C20617070C5
:102B50005F6164765F73746172740D0A0000000037
:102B60006170705F7570646174655F706172616DD2
:102B7000735F72656A65637465645F66756E630D25
:102B80000A0000006170705F7570646174655F7049
:102B90006172616D735F636F6D706C6574655F66A4
:102BA000756E630D0A0000006170705F6164765F8E
:102BB0006E6F6E5F636F6E6E5F636F6D706C65746A
:102BC000650D0A006170705F6164765F756E64699F
:102BD000726563745F636F6D706C6574650D0A0078
:102BE0006170705F6164765F6469726563745F636E
:102BF0006F6D706C6574650D0A0000006170705F28
:102C000064625F696E69745F636F6D706C65746533
:102C10005F66756E630D0A006170705F706172614E
:102C20006D5F7570646174655F7265715F696E6414
:102C30005F66756E630D0A006170705F706172612E
:102C40006D5F757064617465645F696E645F6675FD
:102C50006E630D0A0000000038B501246846047058
:102C60000C21484800F052FD464D6946EC702A1D83
:102C7000352000F051FD002800D02C71FFF796FDA3
:102C80004149322000F04EFD0021322000F0B2FB1D
:102C900038BD10B5FFF71EFE10BD10B53948022330
:102CA00080783222010239480E3100F04BFC0121BC
:102CB00001701321417000F057FC10BD10B504469F
:102CC00030482C2380783222010230480E31801E99
:102CD00000F038FC0146203004720022427208469F
:102CE00000F042FC10BD10B5502332220D212848BF
:102CF00000F028FC0446FFF78BFD204600F034FC72
:102D00000321322000F076FB10BD214810B50123CD
:102D100032220D210B3800F015FC0221017000F069
:102D200023FC10BD10B5FFF7DBFD10BD194B10B52E
:102D30009A4201D91A4602E0002A00D1012200F08D
:102D4000F7FC10BDF8B50646114815460F46252379
:102D500032220D21C01C00F0F5FB04460120207733
:102D60002046062239461D3000F0B0FB23200655D0
:102D7000658225822046FFF704FE204600F0F4FB22
:102D8000F8BD000038800020C4390020043800005D
:102D90000E3400003075000010B5104600F012FB34
:102DA000002809D1012332220D215C4800F0CAFB22
:102DB0000121017000F0D8FB002010BD70B508782B
:102DC00015460E282FD008DC01280FD002283AD053
:102DD00003281ED00D2836D121E00F2827D0102837
:102DE00029D0112827D012282DD127E04878002893
:102DF00029D14A48222332220D21801C00F0A2FB57
:102E0000044601462846FFF770FD204600F0ACFB63
:102E100019E04878002816D1FFF780FD13E04878C4
:102E2000FFF798FD0FE04878FFF799FD0BE0487831
:102E3000FFF79AFD07E0FFF7A3FD04E04878442878
:102E400001D1FFF7A0FD002070BD70B51C461046F3
:102E50000D4600F0B7FA032805D13149200A8870E1
:102E60002846FFF7B7FC002070BD70B508781546FE
:102E70000C460A2810D1104600F0A4FA05280BD100
:102E80006078002802D0FFF75BFD05E006212846A8
:102E900000F0B0FAFFF759FD002070BD10B51046E4
:102EA000FFF7EAFC002010BD10B50846FFF78DFCC7
:102EB000002010BD10B510460C4600F083FA012822
:102EC00008D12078002805D1FFF7E3FE002801D0C3
:102ED000FFF74FFD002010BD10B5FFF771FC00207B
:102EE00010BD10B50846FFF74DFD002010BD70B5B0
:102EF0000D46012332220E210A4800F023FB04462E
:102F00002846FFF741FD2070204600F02DFB0020F1
:102F100070BD10B5FFF73FFD002010BD023400006A
:102F2000388000201038000010B5040003D020685D
:102F3000002802D002E0002010BD00BE00F062FBBD
:102F4000204600F05FFB012010BDFFB581B0029963
:102F500000260A9F1D461C46102902D9002005B0F4
:102F6000F0BD002801DA01264042029900F09CFAE7
:102F70000A2901DA303107E0039A002A01D0412200
:102F800000E0612251180A392170641C0028ECDC31
:102F9000601B302102E02170401C641CB842FAD34F
:102FA000002E02D02D202070641C00202070601B99
:102FB0000021440807E0421A5219203A6B5CD67F80
:102FC0006E54D377491C8C42F5D8C8E770B50446D7
:102FD00025680498691A511A4D1E854200D2284668
:102FE000002106E026685D5C357025686D1C491C73
:102FF00025608142F6D3216800200870104670BD1C
:10300000FFB589B0064607900020089013780F4658
:10301000541C0798801B401CB84261D2252B05D058
:103020003A46314607A800F0FFF855E02578002120
:10303000641C302D09D12078641C002850D0303811
:10304000092800D8C1B22578641C6C2D01D0682DE8
:1030500002D108952578641C692D21D008DC002D4B
:103060003ED0582D24D0632D40D0642D06D117E0DA
:10307000732D40D0752D1BD0782D19D025200090B0
:1030800071A33A46314607A8FFF7A0FF2B463A4600
:10309000314607A800F0C8F8022075A3009016E09A
:1030A0000C9A01CA0C920022009101AB0A210AE09D
:1030B0000C9A752D01CA0C92F5D00091582D13D0A1
:1030C000002201AB1021FFF740FF01AB00903A4610
:1030D000314607A8FFF77AFF2378641C002B98D1AC
:1030E00007980DB0801BF0BD0122EAE70C98037829
:1030F000001D0C9094E70C9820C80C90284600F016
:103100008BF82B460090E2E710B55A4A0020116870
:10311000002904D008464968116000214160FFF78A
:1031200003FF00F00BFB5348001F4068002809D044
:103130000468204600F070F801464F4A204600F02F
:1031400003FB10BDFDF792FB10BD0FB470B54B48EB
:10315000C0B00078002805D0002040B070BC08BC8A
:1031600004B01847FF2145AB68460131449AFFF788
:1031700047FF0025684600F04FF8461C0321082051
:1031800000F0E8FA04002BD00321304600F0E2FA08
:10319000206000280FD06946656000F073F8EFF3F7
:1031A0001081012080F31088324A0123121F5068D9
:1031B000002804D004E0204600F024FA10E0137048
:1031C0002C4A002802D1146005E010464268002A0B
:1031D000FBD144606560002904D0012080F3108891
:1031E0000120BAE70020F9E7014625A0ADE710B5B8
:1031F000204C241F207800280DD0FDF759FB606873
:10320000006800F009F8014660681B4A006800F099
:103210009BFA0020207010BD0146002000E0401CF9
:103220000A5C002AFBD1704710B50468611A491C7A
:10323000914201D3002010BD23700168491C016038
:1032400000200870012010BD464154414C3A2075C1
:103250006E737570706F72746564207072696E74CD
:1032600066206368617261637465723A20000000D1
:103270002E0A00004C80002009310020C4060800FE
:103280002573000003460A780270401C491C002A7E
:10329000F9D1184670470000064C0125064E05E09E
:1032A000E36807CC2B430C3C98471034B442F7D367
:1032B000FDF7CAF8343A0020643A002003B401480C
:1032C000019001BD551B020003B40148019001BDEE
:1032D0000F3B030003B40148019001BDCF2B030055
:1032E00003B40148019001BDCB2C030003B4014895
:1032F000019001BD0990020003B40148019001BD95
:10330000C12D030003B40148019001BD0921030050
:1033100003B40148019001BDC92D030003B4014865
:10332000019001BD2B69020003B40148019001BD69
:10333000EB31030003B40148019001BD3D320300AD
:1033400003B40148019001BDD721030003B4014833
:10335000019001BD1F21020003B40148019001BD8D
:103360002F2F030003B40148019001BD998F020083
:1033700003B40148019001BD938F020003B40148DA
:10338000019001BDCD8C020003B40148019001BD44
:10339000418F020003B40148019001BD276802007B
:1033A00003B40148019001BD3968020003B401482B
:1033B000019001BDB780020003B40148019001BD36
:1033C0005D80020003B40148019001BDB3260300F3
:1033D00003B40148019001BDFD3D030003B4014861
:1033E000019001BDA528030003B40148019001BD6F
:1033F000D5AF020003B40148019001BD312603009E
:1034000003B40148019001BDA1A5020003B4014825
:10341000019001BDE3A5020003B40148019001BD84
:1034200087A8020003B40148019001BDA7A90200CA
:1034300003B40148019001BD93AA020003B40148FE
:10344000019001BD95AB020003B40148019001BD9C
:10345000F9AB020003B40148019001BD69AC020060
:1034600003B40148019001BD17AD020003B4014847
:10347000019001BD77AD020003B40148019001BD88
:10348000F1AD020003B40148019001BD85AE020018
:1034900003B40148019001BD11AF020003B401481B
:1034A000019001BD3350020003B40148019001BDF9
:1034B000A73A030003B40148019001BD554802003A
:1034C00003B40148019001BD1F50020003B401483C
:1034D000019001BD213B030003B40148019001BDEF
:1034E0007F0C030003B40148019001BDAB0C030045
:1034F00003B40148019001BDBF22020003B401489A
:10350000019001BDEB26030003B40148019001BD09
:103510003524030003B40148019001BD2F220200AD
:1035200003B40148019001BDDD20030003B401484C
:10353000019001BD533B030003B40148019001BD5C
:103540009D20030003B40148019001BDB123030095
:1035500003B40148019001BD49E5020003B40148EC
:10356000019001BDF9E3020003B40148019001BDDF
:10357000E123030003B40148019001BD4BCD0200DB
:1035800003B40148019001BD99D1020003B4014880
:10359000019001BDABD0020003B40148019001BD10
:1035A00069D0020003B40148019001BD77CF020049
:1035B00003B40148019001BD01CC020003B40148ED
:1035C000019001BD29CC020003B40148019001BD66
:1035D00015D2020003B40148019001BD8DD2020052
:1035E00003B40148019001BDB938020003B4014899
:1035F000019001BDCD44020003B40148019001BD1A
:103600007758020003B40148019001BDD72203009E
:1036100003B40148019001BD2D42020003B40148EA
:10362000019001BD8D3D030003B40148019001BD2F
:10363000F38E020003B40148019001BD218E020007
:1036400003B40148019001BD773B030003B4014876
:10365000019001BDD729030003B40148019001BDC9
:103660007920030003B40148019001BD2129030022
:1036700003B40148019001BDC768020003B40148CA
:10368000019001BD0D2C030003B40148019001BD60
:10369000652C030003B40148019001BDDB2E03003B
:1036A00003B40148019001BD231D020003B4014889
:1036B000019001BDC32C030003B40148019001BD7A
:1036C0001531030003B40148019001BD3B660200BF
:1036D00003B40148019001BD2B66020003B4014808
:1036E000019001BD038D020003B40148019001BDAA
:1036F000CF8F020003B40148019001BD1B66020098
:1037000003B40148019001BD213B030003B401480B
:10371000019001BD533B030003B40148019001BD7A
:10372000D129030003B40148019001BD872503009E
:1037300003B40148019001BD2528030003B40148EA
:10374000019001BDF580020003B40148019001BD64
:103750002F81020003B40148019001BD152203002E
:1037600002E008C8121F08C1002AFAD1704770474A
:10377000002001E001C1121F002AFBD170470101A6
:10378000000A04280A040203AA0055032A00A00123
:10379000FFFF2C01550C0020D90E0020C112002083
:1037A0007F130020AD130020C50F0020291000203A
:1037B0008910002005040000C11500200604000047
:1037C0009339020007040000D93902000804000000
:1037D0001F3A020002040000B73B02000004000090
:1037E000093C0200040400006F3C020003040000D6
:1037F000D93C0200010400004B3D02000904000016
:10380000D73A02000A040000413B02000B0400000A
:103810004D3F0200210400009942020026040000EE
:10382000EB47020000080000EF3F02003F000000ED
:10383000CF4102004B000000C93D02004E000000D5
:10384000213E0200230400007F3E02002404000009
:10385000B93E0200270400009B4302002804000038
:10386000C5430200250400003D4302002B04000074
:10387000F143020031040000114402003204000050
:1038800059440200350400008D4402002904000060
:10389000DB1500202A040000254502002C0400004E
:1038A0006D4502002D040000F74502002E040000C3
:1038B0002B4602002F040000634602003304000080
:1038C000934602003404000015470200360400004D
:1038D000454702003004000097470200010800003D
:1038E0002D42020001080000F5150020000800002C
:1038F000EF3F020000000000000000000000000098
:1039000000000000000000000000000000000000B7
:1039100000000000000000000000000000000000A7
:103920000000000000000000000000000000000097
:103930000000000000000000000000000000000087
:103940000000000000000000000000000000000077
:103950000000000000000000000000000000000067
:103960000000000000000000000000000000000057
:103970000000000000000000000000000000000047
:103980000000000000000000000000000000000037
:1039900000000000E43800200200000000000000E9
:1039A00000000000B437002026000000F43800209A
:1039B000A43900206403080016000600FF003F0041
:1039C000FF03FF01000000002C3A0020448000208B
:1039D0000700010001340000992D00200034000090
:1039E000BD2D0020003800006B2E002001380000A3
:1039F0004B2E0020033800009D2E00200F380000C1
:103A0000EF2E002011380000132F0020093800008D
:103A1000A92E002000C80000B52E002010340000A0
:103A2000E32E002001C80000D92E0020D439002048
:103A30000B000000683A00200080002050000000C9
:103A400070370020683A002020900020BC00000061
:103A50007037002068070800202A0800E0050000F1
:083A600070370020800C00000B
:040000052000044192
:00000001FF
